:100000000C942A000C9434000C9434000C943400AA
:100010000C9434000C9434000C9434000C94340090
:100020000C9434000C9434000C9434000C94340080
:100030000C9434000C9434000C9434000C94340070
:100040000C9434000C9434000C9434000C94340060
:100050000C94340011241FBECFE5D4E0DEBFCDBF29
:100060000E943B000C944D000C940000BB9A8CBF86
:1000700089E683BF0895BB9A8AB38C608ABBDA9AFB
:10008000C5E08CB78C2F0E94360087E893E101977A
:0E009000F1F700C00000CF5FF4CFF894FFCF6F
:00000001FF
